{
  "contracts/EchidnaTest.sol": {
    "EchidnaTest": {
      "abi": [
        {
          "inputs": [],
          "stateMutability": "nonpayable",
          "type": "constructor"
        },
        {
          "inputs": [],
          "name": "echidna_test",
          "outputs": [
            {
              "internalType": "bool",
              "name": "",
              "type": "bool"
            }
          ],
          "stateMutability": "nonpayable",
          "type": "function"
        }
      ],
      "evm": {
        "bytecode": {
          "linkReferences": {
            "contracts/EchidnaTest.sol": {
              "A": [
                {
                  "length": 20,
                  "start": 472
                }
              ]
            }
          },
          "object": "608060405234801561001057600080fd5b50600060405161001f906100d2565b604051809103906000f08015801561003b573d6000803e3d6000fd5b509050600060405161004c906100de565b604051809103906000f080158015610068573d6000803e3d6000fd5b5090508073ffffffffffffffffffffffffffffffffffffffff1663a7916fac6040518163ffffffff1660e01b8152600401600060405180830381600087803b1580156100b357600080fd5b505af11580156100c7573d6000803e3d6000fd5b5050505050506100ea565b60e68061018283390190565b608a8061026883390190565b608a806100f86000396000f3fe6080604052348015600f57600080fd5b506004361060285760003560e01c806317bf8bac14602d575b600080fd5b6033604b565b60405180821515815260200191505060405180910390f35b6000600190509056fea264697066735822122072b5ca97947abbba9c9f7b2a3d86acef31d6e97a279bfd0572fae620163aa5e264736f6c63430007030033608060405234801561001057600080fd5b5060c78061001f6000396000f3fe6080604052348015600f57600080fd5b506004361060285760003560e01c8063febb0f7e14602d575b600080fd5b60336035565b005b73__$26df57cdc1d26a7654eb7e6dc026b9122b$__63c29855786040518163ffffffff1660e01b815260040160006040518083038186803b158015607857600080fd5b505af4158015608b573d6000803e3d6000fd5b5050505056fea2646970667358221220975700c05602d2bd58ce94bd1f14359a373d7dc7f8f1af1e2cf0d51260ca07a364736f6c634300070300336080604052348015600f57600080fd5b50606d80601d6000396000f3fe6080604052348015600f57600080fd5b506004361060285760003560e01c8063a7916fac14602d575b600080fd5b60336035565b005b56fea2646970667358221220a74854ef02bc3036cfebed346002c799cf043cd488bfd6aa9923071e39cbd77264736f6c63430007030033",
          "opcodes": "PUSH1 0x80 PUSH1 0x40 MSTORE CALLVALUE DUP1 ISZERO PUSH2 0x10 JUMPI PUSH1 0x0 DUP1 REVERT JUMPDEST POP PUSH1 0x0 PUSH1 0x40 MLOAD PUSH2 0x1F SWAP1 PUSH2 0xD2 JUMP JUMPDEST PUSH1 0x40 MLOAD DUP1 SWAP2 SUB SWAP1 PUSH1 0x0 CREATE DUP1 ISZERO DUP1 ISZERO PUSH2 0x3B JUMPI RETURNDATASIZE PUSH1 0x0 DUP1 RETURNDATACOPY RETURNDATASIZE PUSH1 0x0 REVERT JUMPDEST POP SWAP1 POP PUSH1 0x0 PUSH1 0x40 MLOAD PUSH2 0x4C SWAP1 PUSH2 0xDE JUMP JUMPDEST PUSH1 0x40 MLOAD DUP1 SWAP2 SUB SWAP1 PUSH1 0x0 CREATE DUP1 ISZERO DUP1 ISZERO PUSH2 0x68 JUMPI RETURNDATASIZE PUSH1 0x0 DUP1 RETURNDATACOPY RETURNDATASIZE PUSH1 0x0 REVERT JUMPDEST POP SWAP1 POP DUP1 PUSH20 0xFFFFFFFFFFFFFFFFFFFFFFFFFFFFFFFFFFFFFFFF AND PUSH4 0xA7916FAC PUSH1 0x40 MLOAD DUP2 PUSH4 0xFFFFFFFF AND PUSH1 0xE0 SHL DUP2 MSTORE PUSH1 0x4 ADD PUSH1 0x0 PUSH1 0x40 MLOAD DUP1 DUP4 SUB DUP2 PUSH1 0x0 DUP8 DUP1 EXTCODESIZE ISZERO DUP1 ISZERO PUSH2 0xB3 JUMPI PUSH1 0x0 DUP1 REVERT JUMPDEST POP GAS CALL ISZERO DUP1 ISZERO PUSH2 0xC7 JUMPI RETURNDATASIZE PUSH1 0x0 DUP1 RETURNDATACOPY RETURNDATASIZE PUSH1 0x0 REVERT JUMPDEST POP POP POP POP POP POP PUSH2 0xEA JUMP JUMPDEST PUSH1 0xE6 DUP1 PUSH2 0x182 DUP4 CODECOPY ADD SWAP1 JUMP JUMPDEST PUSH1 0x8A DUP1 PUSH2 0x268 DUP4 CODECOPY ADD SWAP1 JUMP JUMPDEST PUSH1 0x8A DUP1 PUSH2 0xF8 PUSH1 0x0 CODECOPY PUSH1 0x0 RETURN INVALID PUSH1 0x80 PUSH1 0x40 MSTORE CALLVALUE DUP1 ISZERO PUSH1 0xF JUMPI PUSH1 0x0 DUP1 REVERT JUMPDEST POP PUSH1 0x4 CALLDATASIZE LT PUSH1 0x28 JUMPI PUSH1 0x0 CALLDATALOAD PUSH1 0xE0 SHR DUP1 PUSH4 0x17BF8BAC EQ PUSH1 0x2D JUMPI JUMPDEST PUSH1 0x0 DUP1 REVERT JUMPDEST PUSH1 0x33 PUSH1 0x4B JUMP JUMPDEST PUSH1 0x40 MLOAD DUP1 DUP3 ISZERO ISZERO DUP2 MSTORE PUSH1 0x20 ADD SWAP2 POP POP PUSH1 0x40 MLOAD DUP1 SWAP2 SUB SWAP1 RETURN JUMPDEST PUSH1 0x0 PUSH1 0x1 SWAP1 POP SWAP1 JUMP INVALID LOG2 PUSH5 0x6970667358 0x22 SLT KECCAK256 PUSH19 0xB5CA97947ABBBA9C9F7B2A3D86ACEF31D6E97A 0x27 SWAP12 REVERT SDIV PUSH19 0xFAE620163AA5E264736F6C6343000703003360 DUP1 PUSH1 0x40 MSTORE CALLVALUE DUP1 ISZERO PUSH2 0x10 JUMPI PUSH1 0x0 DUP1 REVERT JUMPDEST POP PUSH1 0xC7 DUP1 PUSH2 0x1F PUSH1 0x0 CODECOPY PUSH1 0x0 RETURN INVALID PUSH1 0x80 PUSH1 0x40 MSTORE CALLVALUE DUP1 ISZERO PUSH1 0xF JUMPI PUSH1 0x0 DUP1 REVERT JUMPDEST POP PUSH1 0x4 CALLDATASIZE LT PUSH1 0x28 JUMPI PUSH1 0x0 CALLDATALOAD PUSH1 0xE0 SHR DUP1 PUSH4 0xFEBB0F7E EQ PUSH1 0x2D JUMPI JUMPDEST PUSH1 0x0 DUP1 REVERT JUMPDEST PUSH1 0x33 PUSH1 0x35 JUMP JUMPDEST STOP JUMPDEST PUSH20 0x0 PUSH4 0xC2985578 PUSH1 0x40 MLOAD DUP2 PUSH4 0xFFFFFFFF AND PUSH1 0xE0 SHL DUP2 MSTORE PUSH1 0x4 ADD PUSH1 0x0 PUSH1 0x40 MLOAD DUP1 DUP4 SUB DUP2 DUP7 DUP1 EXTCODESIZE ISZERO DUP1 ISZERO PUSH1 0x78 JUMPI PUSH1 0x0 DUP1 REVERT JUMPDEST POP GAS DELEGATECALL ISZERO DUP1 ISZERO PUSH1 0x8B JUMPI RETURNDATASIZE PUSH1 0x0 DUP1 RETURNDATACOPY RETURNDATASIZE PUSH1 0x0 REVERT JUMPDEST POP POP POP POP JUMP INVALID LOG2 PUSH5 0x6970667358 0x22 SLT KECCAK256 SWAP8 JUMPI STOP 0xC0 JUMP MUL 0xD2 0xBD PC 0xCE SWAP5 0xBD 0x1F EQ CALLDATALOAD SWAP11 CALLDATACOPY RETURNDATASIZE PUSH30 0xC7F8F1AF1E2CF0D51260CA07A364736F6C63430007030033608060405234 DUP1 ISZERO PUSH1 0xF JUMPI PUSH1 0x0 DUP1 REVERT JUMPDEST POP PUSH1 0x6D DUP1 PUSH1 0x1D PUSH1 0x0 CODECOPY PUSH1 0x0 RETURN INVALID PUSH1 0x80 PUSH1 0x40 MSTORE CALLVALUE DUP1 ISZERO PUSH1 0xF JUMPI PUSH1 0x0 DUP1 REVERT JUMPDEST POP PUSH1 0x4 CALLDATASIZE LT PUSH1 0x28 JUMPI PUSH1 0x0 CALLDATALOAD PUSH1 0xE0 SHR DUP1 PUSH4 0xA7916FAC EQ PUSH1 0x2D JUMPI JUMPDEST PUSH1 0x0 DUP1 REVERT JUMPDEST PUSH1 0x33 PUSH1 0x35 JUMP JUMPDEST STOP JUMPDEST JUMP INVALID LOG2 PUSH5 0x6970667358 0x22 SLT KECCAK256 0xA7 0x48 SLOAD 0xEF MUL 0xBC ADDRESS CALLDATASIZE 0xCF 0xEB 0xED CALLVALUE PUSH1 0x2 0xC7 SWAP10 0xCF DIV EXTCODECOPY 0xD4 DUP9 0xBF 0xD6 0xAA SWAP10 0x23 SMOD 0x1E CODECOPY 0xCB 0xD7 PUSH19 0x64736F6C634300070300330000000000000000 "
        },
        "methodIdentifiers": {
          "echidna_test()": "17bf8bac"
        }
      }
    }
  }
}