{
  "contracts/EchidnaTest.sol": {
    "C": {
      "abi": [
        {
          "inputs": [],
          "name": "baz",
          "outputs": [],
          "stateMutability": "nonpayable",
          "type": "function"
        }
      ],
      "evm": {
        "bytecode": {
          "linkReferences": {},
          "object": "6080604052348015600f57600080fd5b50606d80601d6000396000f3fe6080604052348015600f57600080fd5b506004361060285760003560e01c8063a7916fac14602d575b600080fd5b60336035565b005b56fea2646970667358221220a74854ef02bc3036cfebed346002c799cf043cd488bfd6aa9923071e39cbd77264736f6c63430007030033",
          "opcodes": "PUSH1 0x80 PUSH1 0x40 MSTORE CALLVALUE DUP1 ISZERO PUSH1 0xF JUMPI PUSH1 0x0 DUP1 REVERT JUMPDEST POP PUSH1 0x6D DUP1 PUSH1 0x1D PUSH1 0x0 CODECOPY PUSH1 0x0 RETURN INVALID PUSH1 0x80 PUSH1 0x40 MSTORE CALLVALUE DUP1 ISZERO PUSH1 0xF JUMPI PUSH1 0x0 DUP1 REVERT JUMPDEST POP PUSH1 0x4 CALLDATASIZE LT PUSH1 0x28 JUMPI PUSH1 0x0 CALLDATALOAD PUSH1 0xE0 SHR DUP1 PUSH4 0xA7916FAC EQ PUSH1 0x2D JUMPI JUMPDEST PUSH1 0x0 DUP1 REVERT JUMPDEST PUSH1 0x33 PUSH1 0x35 JUMP JUMPDEST STOP JUMPDEST JUMP INVALID LOG2 PUSH5 0x6970667358 0x22 SLT KECCAK256 0xA7 0x48 SLOAD 0xEF MUL 0xBC ADDRESS CALLDATASIZE 0xCF 0xEB 0xED CALLVALUE PUSH1 0x2 0xC7 SWAP10 0xCF DIV EXTCODECOPY 0xD4 DUP9 0xBF 0xD6 0xAA SWAP10 0x23 SMOD 0x1E CODECOPY 0xCB 0xD7 PUSH19 0x64736F6C634300070300330000000000000000 "
        },
        "methodIdentifiers": {
          "baz()": "a7916fac"
        }
      }
    }
  }
}