{
  "contracts/EchidnaTest.sol": {
    "B": {
      "abi": [
        {
          "inputs": [],
          "name": "bar",
          "outputs": [],
          "stateMutability": "nonpayable",
          "type": "function"
        }
      ],
      "evm": {
        "bytecode": {
          "linkReferences": {
            "contracts/EchidnaTest.sol": {
              "A": [
                {
                  "length": 20,
                  "start": 86
                }
              ]
            }
          },
          "object": "608060405234801561001057600080fd5b5060c78061001f6000396000f3fe6080604052348015600f57600080fd5b506004361060285760003560e01c8063febb0f7e14602d575b600080fd5b60336035565b005b73__$26df57cdc1d26a7654eb7e6dc026b9122b$__63c29855786040518163ffffffff1660e01b815260040160006040518083038186803b158015607857600080fd5b505af4158015608b573d6000803e3d6000fd5b5050505056fea2646970667358221220975700c05602d2bd58ce94bd1f14359a373d7dc7f8f1af1e2cf0d51260ca07a364736f6c63430007030033",
          "opcodes": "PUSH1 0x80 PUSH1 0x40 MSTORE CALLVALUE DUP1 ISZERO PUSH2 0x10 JUMPI PUSH1 0x0 DUP1 REVERT JUMPDEST POP PUSH1 0xC7 DUP1 PUSH2 0x1F PUSH1 0x0 CODECOPY PUSH1 0x0 RETURN INVALID PUSH1 0x80 PUSH1 0x40 MSTORE CALLVALUE DUP1 ISZERO PUSH1 0xF JUMPI PUSH1 0x0 DUP1 REVERT JUMPDEST POP PUSH1 0x4 CALLDATASIZE LT PUSH1 0x28 JUMPI PUSH1 0x0 CALLDATALOAD PUSH1 0xE0 SHR DUP1 PUSH4 0xFEBB0F7E EQ PUSH1 0x2D JUMPI JUMPDEST PUSH1 0x0 DUP1 REVERT JUMPDEST PUSH1 0x33 PUSH1 0x35 JUMP JUMPDEST STOP JUMPDEST PUSH20 0x0 PUSH4 0xC2985578 PUSH1 0x40 MLOAD DUP2 PUSH4 0xFFFFFFFF AND PUSH1 0xE0 SHL DUP2 MSTORE PUSH1 0x4 ADD PUSH1 0x0 PUSH1 0x40 MLOAD DUP1 DUP4 SUB DUP2 DUP7 DUP1 EXTCODESIZE ISZERO DUP1 ISZERO PUSH1 0x78 JUMPI PUSH1 0x0 DUP1 REVERT JUMPDEST POP GAS DELEGATECALL ISZERO DUP1 ISZERO PUSH1 0x8B JUMPI RETURNDATASIZE PUSH1 0x0 DUP1 RETURNDATACOPY RETURNDATASIZE PUSH1 0x0 REVERT JUMPDEST POP POP POP POP JUMP INVALID LOG2 PUSH5 0x6970667358 0x22 SLT KECCAK256 SWAP8 JUMPI STOP 0xC0 JUMP MUL 0xD2 0xBD PC 0xCE SWAP5 0xBD 0x1F EQ CALLDATALOAD SWAP11 CALLDATACOPY RETURNDATASIZE PUSH30 0xC7F8F1AF1E2CF0D51260CA07A364736F6C63430007030033000000000000 "
        },
        "methodIdentifiers": {
          "bar()": "febb0f7e"
        }
      }
    }
  }
}