{
  "_format": "hh-sol-artifact-1",
  "contractName": "B",
  "sourceName": "contracts/EchidnaTest.sol",
  "abi": [
    {
      "inputs": [],
      "name": "bar",
      "outputs": [],
      "stateMutability": "nonpayable",
      "type": "function"
    }
  ],
  "bytecode": "0x608060405234801561001057600080fd5b5060c78061001f6000396000f3fe6080604052348015600f57600080fd5b506004361060285760003560e01c8063febb0f7e14602d575b600080fd5b60336035565b005b73__$26df57cdc1d26a7654eb7e6dc026b9122b$__63c29855786040518163ffffffff1660e01b815260040160006040518083038186803b158015607857600080fd5b505af4158015608b573d6000803e3d6000fd5b5050505056fea2646970667358221220975700c05602d2bd58ce94bd1f14359a373d7dc7f8f1af1e2cf0d51260ca07a364736f6c63430007030033",
  "linkReferences": {
    "contracts/EchidnaTest.sol": {
      "A": [
        {
          "length": 20,
          "start": 86
        }
      ]
    }
  },
  "deployedLinkReferences": {
    "contracts/EchidnaTest.sol": {
      "A": [
        {
          "length": 20,
          "start": 55
        }
      ]
    }
  }
}