{
  "_format": "hh-sol-artifact-1",
  "contractName": "EchidnaTest",
  "sourceName": "contracts/EchidnaTest.sol",
  "abi": [
    {
      "inputs": [],
      "stateMutability": "nonpayable",
      "type": "constructor"
    },
    {
      "inputs": [],
      "name": "echidna_test",
      "outputs": [
        {
          "internalType": "bool",
          "name": "",
          "type": "bool"
        }
      ],
      "stateMutability": "nonpayable",
      "type": "function"
    }
  ],
  "bytecode": "0x608060405234801561001057600080fd5b50600060405161001f906100d2565b604051809103906000f08015801561003b573d6000803e3d6000fd5b509050600060405161004c906100de565b604051809103906000f080158015610068573d6000803e3d6000fd5b5090508073ffffffffffffffffffffffffffffffffffffffff1663a7916fac6040518163ffffffff1660e01b8152600401600060405180830381600087803b1580156100b357600080fd5b505af11580156100c7573d6000803e3d6000fd5b5050505050506100ea565b60e68061018283390190565b608a8061026883390190565b608a806100f86000396000f3fe6080604052348015600f57600080fd5b506004361060285760003560e01c806317bf8bac14602d575b600080fd5b6033604b565b60405180821515815260200191505060405180910390f35b6000600190509056fea264697066735822122072b5ca97947abbba9c9f7b2a3d86acef31d6e97a279bfd0572fae620163aa5e264736f6c63430007030033608060405234801561001057600080fd5b5060c78061001f6000396000f3fe6080604052348015600f57600080fd5b506004361060285760003560e01c8063febb0f7e14602d575b600080fd5b60336035565b005b73__$26df57cdc1d26a7654eb7e6dc026b9122b$__63c29855786040518163ffffffff1660e01b815260040160006040518083038186803b158015607857600080fd5b505af4158015608b573d6000803e3d6000fd5b5050505056fea2646970667358221220975700c05602d2bd58ce94bd1f14359a373d7dc7f8f1af1e2cf0d51260ca07a364736f6c634300070300336080604052348015600f57600080fd5b50606d80601d6000396000f3fe6080604052348015600f57600080fd5b506004361060285760003560e01c8063a7916fac14602d575b600080fd5b60336035565b005b56fea2646970667358221220a74854ef02bc3036cfebed346002c799cf043cd488bfd6aa9923071e39cbd77264736f6c63430007030033",
  "linkReferences": {
    "contracts/EchidnaTest.sol": {
      "A": [
        {
          "length": 20,
          "start": 472
        }
      ]
    }
  },
  "deployedLinkReferences": {}
}